:100000000C942A000C943F000C943F000C943F0089
:100010000C943F000C943F000C943F000C943F0064
:100020000C943F000C943F000C943F000C943F0054
:100030000C943F000C943F000C943F000C943F0044
:100040000C943F000C943F000C943F000C943F0034
:100050000C943F0011241FBECFE5D8E0DEBFCDBF1A
:1000600010E0A0E6B0E0E6EEF7E002C005900D92E9
:10007000AA36B107D9F70E94CC020C94F1030C9474
:100080000000CF93DF93CDB7DEB72E970FB6F8946D
:10009000DEBF0FBECDBF8AE390E0FC0120818AE382
:1000A00090E02061FC0120838BE390E0FC01308133
:1000B0008BE390E020E12327FC01208380E090E0A7
:1000C000AAE7B4E489839A83AB83BC8320E030E061
:1000D0004AEF54E469817A818B819C810E945C03A0
:1000E000DC01CB018D839E83AF83B88720E030E0B5
:1000F00040E85FE36D817E818F8198850E94D60202
:1001000088232CF481E090E09A8789873FC020E023
:100110003FEF4FE757E46D817E818F8198850E9484
:10012000570318164CF520E030E040E251E46981B5
:100130007A818B819C810E945C03DC01CB01BC0134
:10014000CD010E94DB02DC01CB019A8789870FC0B9
:1001500088EC90E09C878B878B859C850197F1F7D5
:100160009C878B8789859A8501979A878987898556
:100170009A85892B69F714C06D817E818F8198855E
:100180000E94DB02DC01CB019A87898789859A85E9
:100190009E878D878D859E850197F1F79E878D8738
:1001A00083CFCF93DF931F92CDB7DEB78AE390E082
:1001B000FC0120818AE390E02E7FFC0120838BE309
:1001C00090E0FC0120818BE390E02160FC01208322
:1001D00087E390E0FC01208187E390E02160FC014F
:1001E000208381E0898389E390E0FC018081817034
:1001F00089838981882351F488E390E0FC01208180
:1002000088E390E02160FC012083EDCF898181307B
:1002100051F788E390E0FC01208188E390E02E7F95
:10022000FC012083E0CFCF93DF931F92CDB7DEB7E1
:100230008AE390E0FC0120818AE390E02E7FFC01BC
:1002400020838BE390E0FC0120818BE390E0216030
:10025000FC01208387E390E0FC01208187E390E0AC
:100260002160FC01208381E0898389E390E0FC0127
:1002700080818170898389818823B9F788E390E040
:10028000FC01308188E390E021E02327FC012083FA
:10029000ECCFCF93DF93CDB7DEB72F970FB6F8949F
:1002A000DEBF0FBECDBF8AE390E0FC0120818AE370
:1002B00090E02E7FFC0120838BE390E0FC01208105
:1002C0008BE390E02160FC01208381E0898387E358
:1002D00090E0FC01208187E390E02160FC01208315
:1002E00089E390E0FC018081817089838981882382
:1002F00009F07DC088E390E0FC01308188E390E064
:1003000021E02327FC01208380E090E0AAEFB3E402
:100310008A839B83AC83BD8320E030E04AEF54E4C2
:100320006A817B818C819D810E945C03DC01CB0111
:100330008E839F83A887B98720E030E040E85FE3A1
:100340006E817F81888599850E94D60288232CF44E
:1003500081E090E09B878A873FC020E03FEF4FE736
:1003600057E46E817F81888599850E94570318160E
:100370004CF520E030E040E251E46A817B818C81E1
:100380009D810E945C03DC01CB01BC01CD010E9478
:10039000DB02DC01CB019B878A870FC088EC90E0F1
:1003A0009D878C878C859D850197F1F79D878C872C
:1003B0008A859B8501979B878A878A859B85892B60
:1003C00069F722C06E817F81888599850E94DB0252
:1003D000DC01CB019B878A878A859B859F878E87D7
:1003E0008E859F850197F1F79F878E8779CF8981C9
:1003F000813009F075CF88E390E0FC01208188E32B
:1004000090E02E7FFC0120836BCFCF93DF93CDB79D
:10041000DEB760970FB6F894DEBF0FBECDBF84E3A2
:1004200090E0FC01208184E390E02E7FFC0120839A
:1004300085E390E0FC01208185E390E02160FC01F0
:10044000208381E08A838AE390E02FEFFC01208300
:1004500019828981282F30E08BE390E0205A3F4FAA
:10046000F9012081FC01208383E390E0FC0180817D
:1004700081708A838A818823B9F780E090E0A6E1C1
:10048000B3E48B839C83AD83BE8320E030E04AEFEE
:1004900054E46B817C818D819E810E945C03DC0130
:1004A000CB018F839887A987BA8720E030E040E8A6
:1004B0005FE36F81788589859A850E94D6028823BB
:1004C0002CF481E090E09C878B873FC020E03FEFD9
:1004D0004FE757E46F81788589859A850E94570395
:1004E00018164CF520E030E040E251E46B817C814D
:1004F0008D819E810E945C03DC01CB01BC01CD019A
:100500000E94DB02DC01CB019C878B870FC088EC4B
:1005100090E09E878D878D859E850197F1F79E8758
:100520008D878B859C8501979C878B878B859C8588
:10053000892B69F714C06F81788589859A850E9417
:10054000DB02DC01CB019C878B878B859C85988B9C
:100550008F878F8598890197F1F7988B8F8783E331
:1005600090E0FC01808181708A838A81882309F070
:100570007BCF89818F5F898389818A3008F01982D6
:100580008981282F30E08BE390E0205A3F4FF9011A
:100590002081FC01208368CFCF93DF93CDB7DEB7F6
:1005A0000E9405020000DF91CF9108950E940A0386
:1005B00008F481E008950E94360388F09F5798F070
:1005C000B92F9927B751B0F0E1F0660F771F881F58
:1005D000991F1AF0BA95C9F714C0B13091F00E9472
:1005E0005003B1E008950C945003672F782F8827AB
:1005F000B85F39F0B93FCCF3869577956795B39599
:10060000D9F73EF490958095709561957F4F8F4F07
:100610009F4F0895990F0008550FAA0BE0E8FEEFD1
:1006200016161706E807F907C0F012161306E407B6
:10063000F50798F0621B730B840B950B39F40A26AF
:1006400061F0232B242B252B21F408950A2609F48D
:10065000A140A6958FEF811D811D089557FD9058EB
:10066000440F551F59F05F3F71F04795880F97FB76
:10067000991F61F09F3F79F0879508951216130630
:100680001406551FF2CF4695F1DF08C0161617065F
:100690001806991FF1CF8695710561050894089594
:1006A000E894BB2766277727CB0197F908950E9426
:1006B0000A0308F48FEF08950E946F030C94E0037F
:1006C0000E94D20338F00E94D90320F0952311F044
:1006D0000C94C9030C94CF0311240C9451030E9471
:1006E0002E0370F3959FC1F3950F50E0551F629F45
:1006F000F001729FBB27F00DB11D639FAA27F00D7B
:10070000B11DAA1F649F6627B00DA11D661F829FA1
:100710002227B00DA11D621F739FB00DA11D621F86
:10072000839FA00D611D221F749F3327A00D611DA3
:10073000231F849F600D211D822F762F6A2F112485
:100740009F5750409AF0F1F088234AF0EE0FFF1FB8
:10075000BB1F661F771F881F91505040A9F79E3F0F
:10076000510580F00C94C9030C9451035F3FE4F3EE
:10077000983ED4F3869577956795B795F795E79565
:100780009F5FC1F7FE2B880F911D9695879597F96E
:10079000089597F99F6780E870E060E008959FEF03
:1007A00080EC089500240A94161617061806090608
:1007B000089500240A9412161306140605060895D7
:1007C000092E0394000C11F4882352F0BB0F40F45F
:1007D000BF2B11F460FF04C06F5F7F4F8F4F9F4F9F
:0607E0000895F894FFCF1C
:0A07E600C0F9A4B0999282F8809047
:00000001FF
